{"contracts/Voting.sol":{"Voting":{"abi":[{"inputs":[],"stateMutability":"nonpayable","type":"constructor"},{"anonymous":false,"inputs":[{"indexed":true,"internalType":"address","name":"voter","type":"address"},{"indexed":true,"internalType":"uint256","name":"candidateId","type":"uint256"}],"name":"Voted","type":"event"},{"inputs":[{"internalType":"uint256","name":"","type":"uint256"}],"name":"candidates","outputs":[{"internalType":"uint256","name":"id","type":"uint256"},{"internalType":"string","name":"name","type":"string"},{"internalType":"uint256","name":"voteCount","type":"uint256"}],"stateMutability":"view","type":"function"},{"inputs":[],"name":"candidatesCount","outputs":[{"internalType":"uint256","name":"","type":"uint256"}],"stateMutability":"view","type":"function"},{"inputs":[{"internalType":"address","name":"","type":"address"}],"name":"hasVoted","outputs":[{"internalType":"bool","name":"","type":"bool"}],"stateMutability":"view","type":"function"}],"evm":{"bytecode":{"linkReferences":{},"object":"608060405234801561001057600080fd5b506100556040518060400160405280600b81526020017f43616e646964617465203100000000000000000000000000000000000000000081525061009e60201b60201c565b6100996040518060400160405280600b81526020017f43616e646964617465203200000000000000000000000000000000000000000081525061009e60201b60201c565b6104b1565b600260008154809291906100b190610151565b9190505550604051806060016040528060025481526020018281526020016000815250600080600254815260200190815260200160002060008201518160000155602082015181600101908161010791906103df565b506040820151816002015590505050565b7f4e487b7100000000000000000000000000000000000000000000000000000000600052601160045260246000fd5b6000819050919050565b600061015c82610147565b91507fffffffffffffffffffffffffffffffffffffffffffffffffffffffffffffffff820361018e5761018d610118565b5b600182019050919050565b600081519050919050565b7f4e487b7100000000000000000000000000000000000000000000000000000000600052604160045260246000fd5b7f4e487b7100000000000000000000000000000000000000000000000000000000600052602260045260246000fd5b6000600282049050600182168061021a57607f821691505b60208210810361022d5761022c6101d3565b5b50919050565b60008190508160005260206000209050919050565b60006020601f8301049050919050565b600082821b905092915050565b6000600883026102957fffffffffffffffffffffffffffffffffffffffffffffffffffffffffffffffff82610258565b61029f8683610258565b95508019841693508086168417925050509392505050565b6000819050919050565b60006102dc6102d76102d284610147565b6102b7565b610147565b9050919050565b6000819050919050565b6102f6836102c1565b61030a610302826102e3565b848454610265565b825550505050565b600090565b61031f610312565b61032a8184846102ed565b505050565b5b8181101561034e57610343600082610317565b600181019050610330565b5050565b601f8211156103935761036481610233565b61036d84610248565b8101602085101561037c578190505b61039061038885610248565b83018261032f565b50505b505050565b600082821c905092915050565b60006103b660001984600802610398565b1980831691505092915050565b60006103cf83836103a5565b9150826002028217905092915050565b6103e882610199565b67ffffffffffffffff811115610401576104006101a4565b5b61040b8254610202565b610416828285610352565b600060209050601f8311600181146104495760008415610437578287015190505b61044185826103c3565b8655506104a9565b601f19841661045786610233565b60005b8281101561047f5784890151825560018201915060208501945060208101905061045a565b8683101561049c5784890151610498601f8916826103a5565b8355505b6001600288020188555050505b505050505050565b610455806104c06000396000f3fe608060405234801561001057600080fd5b50600436106100415760003560e01c806309eef43e146100465780632d35a8a2146100765780633477ee2e14610094575b600080fd5b610060600480360381019061005b9190610201565b6100c6565b60405161006d9190610249565b60405180910390f35b61007e6100e6565b60405161008b919061027d565b60405180910390f35b6100ae60048036038101906100a991906102c4565b6100ec565b6040516100bd93929190610381565b60405180910390f35b60016020528060005260406000206000915054906101000a900460ff1681565b60025481565b6000602052806000526040600020600091509050806000015490806001018054610115906103ee565b80601f0160208091040260200160405190810160405280929190818152602001828054610141906103ee565b801561018e5780601f106101635761010080835404028352916020019161018e565b820191906000526020600020905b81548152906001019060200180831161017157829003601f168201915b5050505050908060020154905083565b600080fd5b600073ffffffffffffffffffffffffffffffffffffffff82169050919050565b60006101ce826101a3565b9050919050565b6101de816101c3565b81146101e957600080fd5b50565b6000813590506101fb816101d5565b92915050565b6000602082840312156102175761021661019e565b5b6000610225848285016101ec565b91505092915050565b60008115159050919050565b6102438161022e565b82525050565b600060208201905061025e600083018461023a565b92915050565b6000819050919050565b61027781610264565b82525050565b6000602082019050610292600083018461026e565b92915050565b6102a181610264565b81146102ac57600080fd5b50565b6000813590506102be81610298565b92915050565b6000602082840312156102da576102d961019e565b5b60006102e8848285016102af565b91505092915050565b600081519050919050565b600082825260208201905092915050565b60005b8381101561032b578082015181840152602081019050610310565b60008484015250505050565b6000601f19601f8301169050919050565b6000610353826102f1565b61035d81856102fc565b935061036d81856020860161030d565b61037681610337565b840191505092915050565b6000606082019050610396600083018661026e565b81810360208301526103a88185610348565b90506103b7604083018461026e565b949350505050565b7f4e487b7100000000000000000000000000000000000000000000000000000000600052602260045260246000fd5b6000600282049050600182168061040657607f821691505b602082108103610419576104186103bf565b5b5091905056fea26469706673582212204d755b1e8139ac2699a3936596163a01007482ae812fb6bf37beaf7e3a71904c64736f6c634300081b0033","opcodes":"PUSH1 0x80 PUSH1 0x40 MSTORE CALLVALUE DUP1 ISZERO PUSH2 0x10 JUMPI PUSH1 0x0 DUP1 REVERT JUMPDEST POP PUSH2 0x55 PUSH1 0x40 MLOAD DUP1 PUSH1 0x40 ADD PUSH1 0x40 MSTORE DUP1 PUSH1 0xB DUP2 MSTORE PUSH1 0x20 ADD PUSH32 0x43616E6469646174652031000000000000000000000000000000000000000000 DUP2 MSTORE POP PUSH2 0x9E PUSH1 0x20 SHL PUSH1 0x20 SHR JUMP JUMPDEST PUSH2 0x99 PUSH1 0x40 MLOAD DUP1 PUSH1 0x40 ADD PUSH1 0x40 MSTORE DUP1 PUSH1 0xB DUP2 MSTORE PUSH1 0x20 ADD PUSH32 0x43616E6469646174652032000000000000000000000000000000000000000000 DUP2 MSTORE POP PUSH2 0x9E PUSH1 0x20 SHL PUSH1 0x20 SHR JUMP JUMPDEST PUSH2 0x4B1 JUMP JUMPDEST PUSH1 0x2 PUSH1 0x0 DUP2 SLOAD DUP1 SWAP3 SWAP2 SWAP1 PUSH2 0xB1 SWAP1 PUSH2 0x151 JUMP JUMPDEST SWAP2 SWAP1 POP SSTORE POP PUSH1 0x40 MLOAD DUP1 PUSH1 0x60 ADD PUSH1 0x40 MSTORE DUP1 PUSH1 0x2 SLOAD DUP2 MSTORE PUSH1 0x20 ADD DUP3 DUP2 MSTORE PUSH1 0x20 ADD PUSH1 0x0 DUP2 MSTORE POP PUSH1 0x0 DUP1 PUSH1 0x2 SLOAD DUP2 MSTORE PUSH1 0x20 ADD SWAP1 DUP2 MSTORE PUSH1 0x20 ADD PUSH1 0x0 KECCAK256 PUSH1 0x0 DUP3 ADD MLOAD DUP2 PUSH1 0x0 ADD SSTORE PUSH1 0x20 DUP3 ADD MLOAD DUP2 PUSH1 0x1 ADD SWAP1 DUP2 PUSH2 0x107 SWAP2 SWAP1 PUSH2 0x3DF JUMP JUMPDEST POP PUSH1 0x40 DUP3 ADD MLOAD DUP2 PUSH1 0x2 ADD SSTORE SWAP1 POP POP POP JUMP JUMPDEST PUSH32 0x4E487B7100000000000000000000000000000000000000000000000000000000 PUSH1 0x0 MSTORE PUSH1 0x11 PUSH1 0x4 MSTORE PUSH1 0x24 PUSH1 0x0 REVERT JUMPDEST PUSH1 0x0 DUP2 SWAP1 POP SWAP2 SWAP1 POP JUMP JUMPDEST PUSH1 0x0 PUSH2 0x15C DUP3 PUSH2 0x147 JUMP JUMPDEST SWAP2 POP PUSH32 0xFFFFFFFFFFFFFFFFFFFFFFFFFFFFFFFFFFFFFFFFFFFFFFFFFFFFFFFFFFFFFFFF DUP3 SUB PUSH2 0x18E JUMPI PUSH2 0x18D PUSH2 0x118 JUMP JUMPDEST JUMPDEST PUSH1 0x1 DUP3 ADD SWAP1 POP SWAP2 SWAP1 POP JUMP JUMPDEST PUSH1 0x0 DUP2 MLOAD SWAP1 POP SWAP2 SWAP1 POP JUMP JUMPDEST PUSH32 0x4E487B7100000000000000000000000000000000000000000000000000000000 PUSH1 0x0 MSTORE PUSH1 0x41 PUSH1 0x4 MSTORE PUSH1 0x24 PUSH1 0x0 REVERT JUMPDEST PUSH32 0x4E487B7100000000000000000000000000000000000000000000000000000000 PUSH1 0x0 MSTORE PUSH1 0x22 PUSH1 0x4 MSTORE PUSH1 0x24 PUSH1 0x0 REVERT JUMPDEST PUSH1 0x0 PUSH1 0x2 DUP3 DIV SWAP1 POP PUSH1 0x1 DUP3 AND DUP1 PUSH2 0x21A JUMPI PUSH1 0x7F DUP3 AND SWAP2 POP JUMPDEST PUSH1 0x20 DUP3 LT DUP2 SUB PUSH2 0x22D JUMPI PUSH2 0x22C PUSH2 0x1D3 JUMP JUMPDEST JUMPDEST POP SWAP2 SWAP1 POP JUMP JUMPDEST PUSH1 0x0 DUP2 SWAP1 POP DUP2 PUSH1 0x0 MSTORE PUSH1 0x20 PUSH1 0x0 KECCAK256 SWAP1 POP SWAP2 SWAP1 POP JUMP JUMPDEST PUSH1 0x0 PUSH1 0x20 PUSH1 0x1F DUP4 ADD DIV SWAP1 POP SWAP2 SWAP1 POP JUMP JUMPDEST PUSH1 0x0 DUP3 DUP3 SHL SWAP1 POP SWAP3 SWAP2 POP POP JUMP JUMPDEST PUSH1 0x0 PUSH1 0x8 DUP4 MUL PUSH2 0x295 PUSH32 0xFFFFFFFFFFFFFFFFFFFFFFFFFFFFFFFFFFFFFFFFFFFFFFFFFFFFFFFFFFFFFFFF DUP3 PUSH2 0x258 JUMP JUMPDEST PUSH2 0x29F DUP7 DUP4 PUSH2 0x258 JUMP JUMPDEST SWAP6 POP DUP1 NOT DUP5 AND SWAP4 POP DUP1 DUP7 AND DUP5 OR SWAP3 POP POP POP SWAP4 SWAP3 POP POP POP JUMP JUMPDEST PUSH1 0x0 DUP2 SWAP1 POP SWAP2 SWAP1 POP JUMP JUMPDEST PUSH1 0x0 PUSH2 0x2DC PUSH2 0x2D7 PUSH2 0x2D2 DUP5 PUSH2 0x147 JUMP JUMPDEST PUSH2 0x2B7 JUMP JUMPDEST PUSH2 0x147 JUMP JUMPDEST SWAP1 POP SWAP2 SWAP1 POP JUMP JUMPDEST PUSH1 0x0 DUP2 SWAP1 POP SWAP2 SWAP1 POP JUMP JUMPDEST PUSH2 0x2F6 DUP4 PUSH2 0x2C1 JUMP JUMPDEST PUSH2 0x30A PUSH2 0x302 DUP3 PUSH2 0x2E3 JUMP JUMPDEST DUP5 DUP5 SLOAD PUSH2 0x265 JUMP JUMPDEST DUP3 SSTORE POP POP POP POP JUMP JUMPDEST PUSH1 0x0 SWAP1 JUMP JUMPDEST PUSH2 0x31F PUSH2 0x312 JUMP JUMPDEST PUSH2 0x32A DUP2 DUP5 DUP5 PUSH2 0x2ED JUMP JUMPDEST POP POP POP JUMP JUMPDEST JUMPDEST DUP2 DUP2 LT ISZERO PUSH2 0x34E JUMPI PUSH2 0x343 PUSH1 0x0 DUP3 PUSH2 0x317 JUMP JUMPDEST PUSH1 0x1 DUP2 ADD SWAP1 POP PUSH2 0x330 JUMP JUMPDEST POP POP JUMP JUMPDEST PUSH1 0x1F DUP3 GT ISZERO PUSH2 0x393 JUMPI PUSH2 0x364 DUP2 PUSH2 0x233 JUMP JUMPDEST PUSH2 0x36D DUP5 PUSH2 0x248 JUMP JUMPDEST DUP2 ADD PUSH1 0x20 DUP6 LT ISZERO PUSH2 0x37C JUMPI DUP2 SWAP1 POP JUMPDEST PUSH2 0x390 PUSH2 0x388 DUP6 PUSH2 0x248 JUMP JUMPDEST DUP4 ADD DUP3 PUSH2 0x32F JUMP JUMPDEST POP POP JUMPDEST POP POP POP JUMP JUMPDEST PUSH1 0x0 DUP3 DUP3 SHR SWAP1 POP SWAP3 SWAP2 POP POP JUMP JUMPDEST PUSH1 0x0 PUSH2 0x3B6 PUSH1 0x0 NOT DUP5 PUSH1 0x8 MUL PUSH2 0x398 JUMP JUMPDEST NOT DUP1 DUP4 AND SWAP2 POP POP SWAP3 SWAP2 POP POP JUMP JUMPDEST PUSH1 0x0 PUSH2 0x3CF DUP4 DUP4 PUSH2 0x3A5 JUMP JUMPDEST SWAP2 POP DUP3 PUSH1 0x2 MUL DUP3 OR SWAP1 POP SWAP3 SWAP2 POP POP JUMP JUMPDEST PUSH2 0x3E8 DUP3 PUSH2 0x199 JUMP JUMPDEST PUSH8 0xFFFFFFFFFFFFFFFF DUP2 GT ISZERO PUSH2 0x401 JUMPI PUSH2 0x400 PUSH2 0x1A4 JUMP JUMPDEST JUMPDEST PUSH2 0x40B DUP3 SLOAD PUSH2 0x202 JUMP JUMPDEST PUSH2 0x416 DUP3 DUP3 DUP6 PUSH2 0x352 JUMP JUMPDEST PUSH1 0x0 PUSH1 0x20 SWAP1 POP PUSH1 0x1F DUP4 GT PUSH1 0x1 DUP2 EQ PUSH2 0x449 JUMPI PUSH1 0x0 DUP5 ISZERO PUSH2 0x437 JUMPI DUP3 DUP8 ADD MLOAD SWAP1 POP JUMPDEST PUSH2 0x441 DUP6 DUP3 PUSH2 0x3C3 JUMP JUMPDEST DUP7 SSTORE POP PUSH2 0x4A9 JUMP JUMPDEST PUSH1 0x1F NOT DUP5 AND PUSH2 0x457 DUP7 PUSH2 0x233 JUMP JUMPDEST PUSH1 0x0 JUMPDEST DUP3 DUP2 LT ISZERO PUSH2 0x47F JUMPI DUP5 DUP10 ADD MLOAD DUP3 SSTORE PUSH1 0x1 DUP3 ADD SWAP2 POP PUSH1 0x20 DUP6 ADD SWAP5 POP PUSH1 0x20 DUP2 ADD SWAP1 POP PUSH2 0x45A JUMP JUMPDEST DUP7 DUP4 LT ISZERO PUSH2 0x49C JUMPI DUP5 DUP10 ADD MLOAD PUSH2 0x498 PUSH1 0x1F DUP10 AND DUP3 PUSH2 0x3A5 JUMP JUMPDEST DUP4 SSTORE POP JUMPDEST PUSH1 0x1 PUSH1 0x2 DUP9 MUL ADD DUP9 SSTORE POP POP POP JUMPDEST POP POP POP POP POP POP JUMP JUMPDEST PUSH2 0x455 DUP1 PUSH2 0x4C0 PUSH1 0x0 CODECOPY PUSH1 0x0 RETURN INVALID PUSH1 0x80 PUSH1 0x40 MSTORE CALLVALUE DUP1 ISZERO PUSH2 0x10 JUMPI PUSH1 0x0 DUP1 REVERT JUMPDEST POP PUSH1 0x4 CALLDATASIZE LT PUSH2 0x41 JUMPI PUSH1 0x0 CALLDATALOAD PUSH1 0xE0 SHR DUP1 PUSH4 0x9EEF43E EQ PUSH2 0x46 JUMPI DUP1 PUSH4 0x2D35A8A2 EQ PUSH2 0x76 JUMPI DUP1 PUSH4 0x3477EE2E EQ PUSH2 0x94 JUMPI JUMPDEST PUSH1 0x0 DUP1 REVERT JUMPDEST PUSH2 0x60 PUSH1 0x4 DUP1 CALLDATASIZE SUB DUP2 ADD SWAP1 PUSH2 0x5B SWAP2 SWAP1 PUSH2 0x201 JUMP JUMPDEST PUSH2 0xC6 JUMP JUMPDEST PUSH1 0x40 MLOAD PUSH2 0x6D SWAP2 SWAP1 PUSH2 0x249 JUMP JUMPDEST PUSH1 0x40 MLOAD DUP1 SWAP2 SUB SWAP1 RETURN JUMPDEST PUSH2 0x7E PUSH2 0xE6 JUMP JUMPDEST PUSH1 0x40 MLOAD PUSH2 0x8B SWAP2 SWAP1 PUSH2 0x27D JUMP JUMPDEST PUSH1 0x40 MLOAD DUP1 SWAP2 SUB SWAP1 RETURN JUMPDEST PUSH2 0xAE PUSH1 0x4 DUP1 CALLDATASIZE SUB DUP2 ADD SWAP1 PUSH2 0xA9 SWAP2 SWAP1 PUSH2 0x2C4 JUMP JUMPDEST PUSH2 0xEC JUMP JUMPDEST PUSH1 0x40 MLOAD PUSH2 0xBD SWAP4 SWAP3 SWAP2 SWAP1 PUSH2 0x381 JUMP JUMPDEST PUSH1 0x40 MLOAD DUP1 SWAP2 SUB SWAP1 RETURN JUMPDEST PUSH1 0x1 PUSH1 0x20 MSTORE DUP1 PUSH1 0x0 MSTORE PUSH1 0x40 PUSH1 0x0 KECCAK256 PUSH1 0x0 SWAP2 POP SLOAD SWAP1 PUSH2 0x100 EXP SWAP1 DIV PUSH1 0xFF AND DUP2 JUMP JUMPDEST PUSH1 0x2 SLOAD DUP2 JUMP JUMPDEST PUSH1 0x0 PUSH1 0x20 MSTORE DUP1 PUSH1 0x0 MSTORE PUSH1 0x40 PUSH1 0x0 KECCAK256 PUSH1 0x0 SWAP2 POP SWAP1 POP DUP1 PUSH1 0x0 ADD SLOAD SWAP1 DUP1 PUSH1 0x1 ADD DUP1 SLOAD PUSH2 0x115 SWAP1 PUSH2 0x3EE JUMP JUMPDEST DUP1 PUSH1 0x1F ADD PUSH1 0x20 DUP1 SWAP2 DIV MUL PUSH1 0x20 ADD PUSH1 0x40 MLOAD SWAP1 DUP2 ADD PUSH1 0x40 MSTORE DUP1 SWAP3 SWAP2 SWAP1 DUP2 DUP2 MSTORE PUSH1 0x20 ADD DUP3 DUP1 SLOAD PUSH2 0x141 SWAP1 PUSH2 0x3EE JUMP JUMPDEST DUP1 ISZERO PUSH2 0x18E JUMPI DUP1 PUSH1 0x1F LT PUSH2 0x163 JUMPI PUSH2 0x100 DUP1 DUP4 SLOAD DIV MUL DUP4 MSTORE SWAP2 PUSH1 0x20 ADD SWAP2 PUSH2 0x18E JUMP JUMPDEST DUP3 ADD SWAP2 SWAP1 PUSH1 0x0 MSTORE PUSH1 0x20 PUSH1 0x0 KECCAK256 SWAP1 JUMPDEST DUP2 SLOAD DUP2 MSTORE SWAP1 PUSH1 0x1 ADD SWAP1 PUSH1 0x20 ADD DUP1 DUP4 GT PUSH2 0x171 JUMPI DUP3 SWAP1 SUB PUSH1 0x1F AND DUP3 ADD SWAP2 JUMPDEST POP POP POP POP POP SWAP1 DUP1 PUSH1 0x2 ADD SLOAD SWAP1 POP DUP4 JUMP JUMPDEST PUSH1 0x0 DUP1 REVERT JUMPDEST PUSH1 0x0 PUSH20 0xFFFFFFFFFFFFFFFFFFFFFFFFFFFFFFFFFFFFFFFF DUP3 AND SWAP1 POP SWAP2 SWAP1 POP JUMP JUMPDEST PUSH1 0x0 PUSH2 0x1CE DUP3 PUSH2 0x1A3 JUMP JUMPDEST SWAP1 POP SWAP2 SWAP1 POP JUMP JUMPDEST PUSH2 0x1DE DUP2 PUSH2 0x1C3 JUMP JUMPDEST DUP2 EQ PUSH2 0x1E9 JUMPI PUSH1 0x0 DUP1 REVERT JUMPDEST POP JUMP JUMPDEST PUSH1 0x0 DUP2 CALLDATALOAD SWAP1 POP PUSH2 0x1FB DUP2 PUSH2 0x1D5 JUMP JUMPDEST SWAP3 SWAP2 POP POP JUMP JUMPDEST PUSH1 0x0 PUSH1 0x20 DUP3 DUP5 SUB SLT ISZERO PUSH2 0x217 JUMPI PUSH2 0x216 PUSH2 0x19E JUMP JUMPDEST JUMPDEST PUSH1 0x0 PUSH2 0x225 DUP5 DUP3 DUP6 ADD PUSH2 0x1EC JUMP JUMPDEST SWAP2 POP POP SWAP3 SWAP2 POP POP JUMP JUMPDEST PUSH1 0x0 DUP2 ISZERO ISZERO SWAP1 POP SWAP2 SWAP1 POP JUMP JUMPDEST PUSH2 0x243 DUP2 PUSH2 0x22E JUMP JUMPDEST DUP3 MSTORE POP POP JUMP JUMPDEST PUSH1 0x0 PUSH1 0x20 DUP3 ADD SWAP1 POP PUSH2 0x25E PUSH1 0x0 DUP4 ADD DUP5 PUSH2 0x23A JUMP JUMPDEST SWAP3 SWAP2 POP POP JUMP JUMPDEST PUSH1 0x0 DUP2 SWAP1 POP SWAP2 SWAP1 POP JUMP JUMPDEST PUSH2 0x277 DUP2 PUSH2 0x264 JUMP JUMPDEST DUP3 MSTORE POP POP JUMP JUMPDEST PUSH1 0x0 PUSH1 0x20 DUP3 ADD SWAP1 POP PUSH2 0x292 PUSH1 0x0 DUP4 ADD DUP5 PUSH2 0x26E JUMP JUMPDEST SWAP3 SWAP2 POP POP JUMP JUMPDEST PUSH2 0x2A1 DUP2 PUSH2 0x264 JUMP JUMPDEST DUP2 EQ PUSH2 0x2AC JUMPI PUSH1 0x0 DUP1 REVERT JUMPDEST POP JUMP JUMPDEST PUSH1 0x0 DUP2 CALLDATALOAD SWAP1 POP PUSH2 0x2BE DUP2 PUSH2 0x298 JUMP JUMPDEST SWAP3 SWAP2 POP POP JUMP JUMPDEST PUSH1 0x0 PUSH1 0x20 DUP3 DUP5 SUB SLT ISZERO PUSH2 0x2DA JUMPI PUSH2 0x2D9 PUSH2 0x19E JUMP JUMPDEST JUMPDEST PUSH1 0x0 PUSH2 0x2E8 DUP5 DUP3 DUP6 ADD PUSH2 0x2AF JUMP JUMPDEST SWAP2 POP POP SWAP3 SWAP2 POP POP JUMP JUMPDEST PUSH1 0x0 DUP2 MLOAD SWAP1 POP SWAP2 SWAP1 POP JUMP JUMPDEST PUSH1 0x0 DUP3 DUP3 MSTORE PUSH1 0x20 DUP3 ADD SWAP1 POP SWAP3 SWAP2 POP POP JUMP JUMPDEST PUSH1 0x0 JUMPDEST DUP4 DUP2 LT ISZERO PUSH2 0x32B JUMPI DUP1 DUP3 ADD MLOAD DUP2 DUP5 ADD MSTORE PUSH1 0x20 DUP2 ADD SWAP1 POP PUSH2 0x310 JUMP JUMPDEST PUSH1 0x0 DUP5 DUP5 ADD MSTORE POP POP POP POP JUMP JUMPDEST PUSH1 0x0 PUSH1 0x1F NOT PUSH1 0x1F DUP4 ADD AND SWAP1 POP SWAP2 SWAP1 POP JUMP JUMPDEST PUSH1 0x0 PUSH2 0x353 DUP3 PUSH2 0x2F1 JUMP JUMPDEST PUSH2 0x35D DUP2 DUP6 PUSH2 0x2FC JUMP JUMPDEST SWAP4 POP PUSH2 0x36D DUP2 DUP6 PUSH1 0x20 DUP7 ADD PUSH2 0x30D JUMP JUMPDEST PUSH2 0x376 DUP2 PUSH2 0x337 JUMP JUMPDEST DUP5 ADD SWAP2 POP POP SWAP3 SWAP2 POP POP JUMP JUMPDEST PUSH1 0x0 PUSH1 0x60 DUP3 ADD SWAP1 POP PUSH2 0x396 PUSH1 0x0 DUP4 ADD DUP7 PUSH2 0x26E JUMP JUMPDEST DUP2 DUP2 SUB PUSH1 0x20 DUP4 ADD MSTORE PUSH2 0x3A8 DUP2 DUP6 PUSH2 0x348 JUMP JUMPDEST SWAP1 POP PUSH2 0x3B7 PUSH1 0x40 DUP4 ADD DUP5 PUSH2 0x26E JUMP JUMPDEST SWAP5 SWAP4 POP POP POP POP JUMP JUMPDEST PUSH32 0x4E487B7100000000000000000000000000000000000000000000000000000000 PUSH1 0x0 MSTORE PUSH1 0x22 PUSH1 0x4 MSTORE PUSH1 0x24 PUSH1 0x0 REVERT JUMPDEST PUSH1 0x0 PUSH1 0x2 DUP3 DIV SWAP1 POP PUSH1 0x1 DUP3 AND DUP1 PUSH2 0x406 JUMPI PUSH1 0x7F DUP3 AND SWAP2 POP JUMPDEST PUSH1 0x20 DUP3 LT DUP2 SUB PUSH2 0x419 JUMPI PUSH2 0x418 PUSH2 0x3BF JUMP JUMPDEST JUMPDEST POP SWAP2 SWAP1 POP JUMP INVALID LOG2 PUSH5 0x6970667358 0x22 SLT KECCAK256 0x4D PUSH22 0x5B1E8139AC2699A3936596163A01007482AE812FB6BF CALLDATACOPY 0xBE 0xAF PUSH31 0x3A71904C64736F6C634300081B003300000000000000000000000000000000 "},"methodIdentifiers":{"candidates(uint256)":"3477ee2e","candidatesCount()":"2d35a8a2","hasVoted(address)":"09eef43e"}}}}}