{
  "_format": "hh-sol-artifact-1",
  "contractName": "Voting",
  "sourceName": "contracts/Voting.sol",
  "abi": [
    {
      "inputs": [],
      "stateMutability": "nonpayable",
      "type": "constructor"
    },
    {
      "anonymous": false,
      "inputs": [
        {
          "indexed": true,
          "internalType": "address",
          "name": "voter",
          "type": "address"
        },
        {
          "indexed": true,
          "internalType": "uint256",
          "name": "candidateId",
          "type": "uint256"
        }
      ],
      "name": "Voted",
      "type": "event"
    },
    {
      "inputs": [
        {
          "internalType": "uint256",
          "name": "",
          "type": "uint256"
        }
      ],
      "name": "candidates",
      "outputs": [
        {
          "internalType": "uint256",
          "name": "id",
          "type": "uint256"
        },
        {
          "internalType": "string",
          "name": "name",
          "type": "string"
        },
        {
          "internalType": "uint256",
          "name": "voteCount",
          "type": "uint256"
        }
      ],
      "stateMutability": "view",
      "type": "function"
    },
    {
      "inputs": [],
      "name": "candidatesCount",
      "outputs": [
        {
          "internalType": "uint256",
          "name": "",
          "type": "uint256"
        }
      ],
      "stateMutability": "view",
      "type": "function"
    },
    {
      "inputs": [
        {
          "internalType": "address",
          "name": "",
          "type": "address"
        }
      ],
      "name": "hasVoted",
      "outputs": [
        {
          "internalType": "bool",
          "name": "",
          "type": "bool"
        }
      ],
      "stateMutability": "view",
      "type": "function"
    }
  ],
  "bytecode": "0x608060405234801561001057600080fd5b506100556040518060400160405280600b81526020017f43616e646964617465203100000000000000000000000000000000000000000081525061009e60201b60201c565b6100996040518060400160405280600b81526020017f43616e646964617465203200000000000000000000000000000000000000000081525061009e60201b60201c565b6104b1565b600260008154809291906100b190610151565b9190505550604051806060016040528060025481526020018281526020016000815250600080600254815260200190815260200160002060008201518160000155602082015181600101908161010791906103df565b506040820151816002015590505050565b7f4e487b7100000000000000000000000000000000000000000000000000000000600052601160045260246000fd5b6000819050919050565b600061015c82610147565b91507fffffffffffffffffffffffffffffffffffffffffffffffffffffffffffffffff820361018e5761018d610118565b5b600182019050919050565b600081519050919050565b7f4e487b7100000000000000000000000000000000000000000000000000000000600052604160045260246000fd5b7f4e487b7100000000000000000000000000000000000000000000000000000000600052602260045260246000fd5b6000600282049050600182168061021a57607f821691505b60208210810361022d5761022c6101d3565b5b50919050565b60008190508160005260206000209050919050565b60006020601f8301049050919050565b600082821b905092915050565b6000600883026102957fffffffffffffffffffffffffffffffffffffffffffffffffffffffffffffffff82610258565b61029f8683610258565b95508019841693508086168417925050509392505050565b6000819050919050565b60006102dc6102d76102d284610147565b6102b7565b610147565b9050919050565b6000819050919050565b6102f6836102c1565b61030a610302826102e3565b848454610265565b825550505050565b600090565b61031f610312565b61032a8184846102ed565b505050565b5b8181101561034e57610343600082610317565b600181019050610330565b5050565b601f8211156103935761036481610233565b61036d84610248565b8101602085101561037c578190505b61039061038885610248565b83018261032f565b50505b505050565b600082821c905092915050565b60006103b660001984600802610398565b1980831691505092915050565b60006103cf83836103a5565b9150826002028217905092915050565b6103e882610199565b67ffffffffffffffff811115610401576104006101a4565b5b61040b8254610202565b610416828285610352565b600060209050601f8311600181146104495760008415610437578287015190505b61044185826103c3565b8655506104a9565b601f19841661045786610233565b60005b8281101561047f5784890151825560018201915060208501945060208101905061045a565b8683101561049c5784890151610498601f8916826103a5565b8355505b6001600288020188555050505b505050505050565b610455806104c06000396000f3fe608060405234801561001057600080fd5b50600436106100415760003560e01c806309eef43e146100465780632d35a8a2146100765780633477ee2e14610094575b600080fd5b610060600480360381019061005b9190610201565b6100c6565b60405161006d9190610249565b60405180910390f35b61007e6100e6565b60405161008b919061027d565b60405180910390f35b6100ae60048036038101906100a991906102c4565b6100ec565b6040516100bd93929190610381565b60405180910390f35b60016020528060005260406000206000915054906101000a900460ff1681565b60025481565b6000602052806000526040600020600091509050806000015490806001018054610115906103ee565b80601f0160208091040260200160405190810160405280929190818152602001828054610141906103ee565b801561018e5780601f106101635761010080835404028352916020019161018e565b820191906000526020600020905b81548152906001019060200180831161017157829003601f168201915b5050505050908060020154905083565b600080fd5b600073ffffffffffffffffffffffffffffffffffffffff82169050919050565b60006101ce826101a3565b9050919050565b6101de816101c3565b81146101e957600080fd5b50565b6000813590506101fb816101d5565b92915050565b6000602082840312156102175761021661019e565b5b6000610225848285016101ec565b91505092915050565b60008115159050919050565b6102438161022e565b82525050565b600060208201905061025e600083018461023a565b92915050565b6000819050919050565b61027781610264565b82525050565b6000602082019050610292600083018461026e565b92915050565b6102a181610264565b81146102ac57600080fd5b50565b6000813590506102be81610298565b92915050565b6000602082840312156102da576102d961019e565b5b60006102e8848285016102af565b91505092915050565b600081519050919050565b600082825260208201905092915050565b60005b8381101561032b578082015181840152602081019050610310565b60008484015250505050565b6000601f19601f8301169050919050565b6000610353826102f1565b61035d81856102fc565b935061036d81856020860161030d565b61037681610337565b840191505092915050565b6000606082019050610396600083018661026e565b81810360208301526103a88185610348565b90506103b7604083018461026e565b949350505050565b7f4e487b7100000000000000000000000000000000000000000000000000000000600052602260045260246000fd5b6000600282049050600182168061040657607f821691505b602082108103610419576104186103bf565b5b5091905056fea26469706673582212204d755b1e8139ac2699a3936596163a01007482ae812fb6bf37beaf7e3a71904c64736f6c634300081b0033",
  "linkReferences": {},
  "deployedLinkReferences": {}
}