{
  "_format": "hh-sol-artifact-1",
  "contractName": "Voting",
  "sourceName": "contracts/Voting.sol",
  "abi": [
    {
      "inputs": [],
      "stateMutability": "nonpayable",
      "type": "constructor"
    },
    {
      "inputs": [
        {
          "internalType": "string",
          "name": "name",
          "type": "string"
        }
      ],
      "name": "addCandidate",
      "outputs": [],
      "stateMutability": "nonpayable",
      "type": "function"
    },
    {
      "inputs": [],
      "name": "admin",
      "outputs": [
        {
          "internalType": "address",
          "name": "",
          "type": "address"
        }
      ],
      "stateMutability": "view",
      "type": "function"
    },
    {
      "inputs": [
        {
          "internalType": "uint256",
          "name": "",
          "type": "uint256"
        }
      ],
      "name": "candidates",
      "outputs": [
        {
          "internalType": "string",
          "name": "name",
          "type": "string"
        },
        {
          "internalType": "uint256",
          "name": "voteCount",
          "type": "uint256"
        }
      ],
      "stateMutability": "view",
      "type": "function"
    },
    {
      "inputs": [],
      "name": "getAllCandidates",
      "outputs": [
        {
          "components": [
            {
              "internalType": "string",
              "name": "name",
              "type": "string"
            },
            {
              "internalType": "uint256",
              "name": "voteCount",
              "type": "uint256"
            }
          ],
          "internalType": "struct Voting.Candidate[]",
          "name": "",
          "type": "tuple[]"
        }
      ],
      "stateMutability": "view",
      "type": "function"
    },
    {
      "inputs": [
        {
          "internalType": "uint256",
          "name": "candidateIndex",
          "type": "uint256"
        }
      ],
      "name": "getVoteCount",
      "outputs": [
        {
          "internalType": "uint256",
          "name": "",
          "type": "uint256"
        }
      ],
      "stateMutability": "view",
      "type": "function"
    },
    {
      "inputs": [
        {
          "internalType": "address",
          "name": "",
          "type": "address"
        }
      ],
      "name": "hasVoted",
      "outputs": [
        {
          "internalType": "bool",
          "name": "",
          "type": "bool"
        }
      ],
      "stateMutability": "view",
      "type": "function"
    },
    {
      "inputs": [
        {
          "internalType": "uint256",
          "name": "candidateIndex",
          "type": "uint256"
        }
      ],
      "name": "vote",
      "outputs": [],
      "stateMutability": "nonpayable",
      "type": "function"
    }
  ],
  "bytecode": "0x608060405234801561001057600080fd5b50336000806101000a81548173ffffffffffffffffffffffffffffffffffffffff021916908373ffffffffffffffffffffffffffffffffffffffff160217905550610e3d806100606000396000f3fe608060405234801561001057600080fd5b506004361061007d5760003560e01c80633477ee2e1161005b5780633477ee2e146100ec578063462e91ec1461011d578063b2c2f2e814610139578063f851a440146101695761007d565b80630121b93f1461008257806309eef43e1461009e5780632e6997fe146100ce575b600080fd5b61009c60048036038101906100979190610802565b610187565b005b6100b860048036038101906100b39190610798565b610318565b6040516100c59190610a9c565b60405180910390f35b6100d6610338565b6040516100e39190610a7a565b60405180910390f35b61010660048036038101906101019190610802565b610433565b604051610114929190610ab7565b60405180910390f35b610137600480360381019061013291906107c1565b6104ef565b005b610153600480360381019061014e9190610802565b6105ea565b6040516101609190610b47565b60405180910390f35b61017161063f565b60405161017e9190610a5f565b60405180910390f35b600160003373ffffffffffffffffffffffffffffffffffffffff1673ffffffffffffffffffffffffffffffffffffffff16815260200190815260200160002060009054906101000a900460ff1615610214576040517f08c379a000000000000000000000000000000000000000000000000000000000815260040161020b90610ae7565b60405180910390fd5b600280549050811061025b576040517f08c379a000000000000000000000000000000000000000000000000000000000815260040161025290610b27565b60405180910390fd5b60018060003373ffffffffffffffffffffffffffffffffffffffff1673ffffffffffffffffffffffffffffffffffffffff16815260200190815260200160002060006101000a81548160ff0219169083151502179055506001600282815481106102ee577f4e487b7100000000000000000000000000000000000000000000000000000000600052603260045260246000fd5b9060005260206000209060020201600101600082825461030e9190610c29565b9250508190555050565b60016020528060005260406000206000915054906101000a900460ff1681565b60606002805480602002602001604051908101604052809291908181526020016000905b8282101561042a578382906000526020600020906002020160405180604001604052908160008201805461038f90610d09565b80601f01602080910402602001604051908101604052809291908181526020018280546103bb90610d09565b80156104085780601f106103dd57610100808354040283529160200191610408565b820191906000526020600020905b8154815290600101906020018083116103eb57829003601f168201915b505050505081526020016001820154815250508152602001906001019061035c565b50505050905090565b6002818154811061044357600080fd5b906000526020600020906002020160009150905080600001805461046690610d09565b80601f016020809104026020016040519081016040528092919081815260200182805461049290610d09565b80156104df5780601f106104b4576101008083540402835291602001916104df565b820191906000526020600020905b8154815290600101906020018083116104c257829003601f168201915b5050505050908060010154905082565b60008054906101000a900473ffffffffffffffffffffffffffffffffffffffff1673ffffffffffffffffffffffffffffffffffffffff163373ffffffffffffffffffffffffffffffffffffffff161461057d576040517f08c379a000000000000000000000000000000000000000000000000000000000815260040161057490610b07565b60405180910390fd5b600260405180604001604052808381526020016000815250908060018154018082558091505060019003906000526020600020906002020160009091909190915060008201518160000190805190602001906105da929190610663565b5060208201518160010155505050565b600060028281548110610626577f4e487b7100000000000000000000000000000000000000000000000000000000600052603260045260246000fd5b9060005260206000209060020201600101549050919050565b60008054906101000a900473ffffffffffffffffffffffffffffffffffffffff1681565b82805461066f90610d09565b90600052602060002090601f01602090048101928261069157600085556106d8565b82601f106106aa57805160ff19168380011785556106d8565b828001600101855582156106d8579182015b828111156106d75782518255916020019190600101906106bc565b5b5090506106e591906106e9565b5090565b5b808211156107025760008160009055506001016106ea565b5090565b600061071961071484610b93565b610b62565b90508281526020810184848401111561073157600080fd5b61073c848285610cc7565b509392505050565b60008135905061075381610dd9565b92915050565b600082601f83011261076a57600080fd5b813561077a848260208601610706565b91505092915050565b60008135905061079281610df0565b92915050565b6000602082840312156107aa57600080fd5b60006107b884828501610744565b91505092915050565b6000602082840312156107d357600080fd5b600082013567ffffffffffffffff8111156107ed57600080fd5b6107f984828501610759565b91505092915050565b60006020828403121561081457600080fd5b600061082284828501610783565b91505092915050565b60006108378383610a04565b905092915050565b61084881610c7f565b82525050565b600061085982610bd3565b6108638185610bf6565b93508360208202850161087585610bc3565b8060005b858110156108b15784840389528151610892858261082b565b945061089d83610be9565b925060208a01995050600181019050610879565b50829750879550505050505092915050565b6108cc81610c91565b82525050565b60006108dd82610bde565b6108e78185610c07565b93506108f7818560208601610cd6565b61090081610dc8565b840191505092915050565b600061091682610bde565b6109208185610c18565b9350610930818560208601610cd6565b61093981610dc8565b840191505092915050565b6000610951601783610c18565b91507f596f75206861766520616c726561647920766f7465642e0000000000000000006000830152602082019050919050565b6000610991601d83610c18565b91507f4f6e6c792061646d696e2063616e206164642063616e646964617465730000006000830152602082019050919050565b60006109d1601283610c18565b91507f496e76616c69642063616e6469646174652e00000000000000000000000000006000830152602082019050919050565b60006040830160008301518482036000860152610a2182826108d2565b9150506020830151610a366020860182610a41565b508091505092915050565b610a4a81610cbd565b82525050565b610a5981610cbd565b82525050565b6000602082019050610a74600083018461083f565b92915050565b60006020820190508181036000830152610a94818461084e565b905092915050565b6000602082019050610ab160008301846108c3565b92915050565b60006040820190508181036000830152610ad1818561090b565b9050610ae06020830184610a50565b9392505050565b60006020820190508181036000830152610b0081610944565b9050919050565b60006020820190508181036000830152610b2081610984565b9050919050565b60006020820190508181036000830152610b40816109c4565b9050919050565b6000602082019050610b5c6000830184610a50565b92915050565b6000604051905081810181811067ffffffffffffffff82111715610b8957610b88610d99565b5b8060405250919050565b600067ffffffffffffffff821115610bae57610bad610d99565b5b601f19601f8301169050602081019050919050565b6000819050602082019050919050565b600081519050919050565b600081519050919050565b6000602082019050919050565b600082825260208201905092915050565b600082825260208201905092915050565b600082825260208201905092915050565b6000610c3482610cbd565b9150610c3f83610cbd565b9250827fffffffffffffffffffffffffffffffffffffffffffffffffffffffffffffffff03821115610c7457610c73610d3b565b5b828201905092915050565b6000610c8a82610c9d565b9050919050565b60008115159050919050565b600073ffffffffffffffffffffffffffffffffffffffff82169050919050565b6000819050919050565b82818337600083830152505050565b60005b83811015610cf4578082015181840152602081019050610cd9565b83811115610d03576000848401525b50505050565b60006002820490506001821680610d2157607f821691505b60208210811415610d3557610d34610d6a565b5b50919050565b7f4e487b7100000000000000000000000000000000000000000000000000000000600052601160045260246000fd5b7f4e487b7100000000000000000000000000000000000000000000000000000000600052602260045260246000fd5b7f4e487b7100000000000000000000000000000000000000000000000000000000600052604160045260246000fd5b6000601f19601f8301169050919050565b610de281610c7f565b8114610ded57600080fd5b50565b610df981610cbd565b8114610e0457600080fd5b5056fea264697066735822122081e7563137757ada29e8f19241e4be2652647278ad193547f7682d465128eed164736f6c63430008000033",
  "linkReferences": {},
  "deployedLinkReferences": {}
}